{
  "_format": "hh-sol-artifact-1",
  "contractName": "EscrowTradeFactory",
  "sourceName": "contracts/EscrowTradeFactory.sol",
  "abi": [
    {
      "inputs": [],
      "stateMutability": "nonpayable",
      "type": "constructor"
    },
    {
      "anonymous": false,
      "inputs": [
        {
          "indexed": true,
          "internalType": "address",
          "name": "buyer",
          "type": "address"
        },
        {
          "indexed": true,
          "internalType": "address",
          "name": "seller",
          "type": "address"
        },
        {
          "indexed": false,
          "internalType": "uint256",
          "name": "amount",
          "type": "uint256"
        },
        {
          "indexed": true,
          "internalType": "address",
          "name": "escrowContractAddress",
          "type": "address"
        },
        {
          "indexed": false,
          "internalType": "uint256",
          "name": "tradeId",
          "type": "uint256"
        }
      ],
      "name": "TradeCreated",
      "type": "event"
    },
    {
      "inputs": [
        {
          "internalType": "address",
          "name": "_seller",
          "type": "address"
        },
        {
          "components": [
            {
              "internalType": "string",
              "name": "item",
              "type": "string"
            },
            {
              "internalType": "uint256",
              "name": "units",
              "type": "uint256"
            },
            {
              "internalType": "uint256",
              "name": "pricePerUnit",
              "type": "uint256"
            }
          ],
          "internalType": "struct EscrowTrade.TradeDetails",
          "name": "_details",
          "type": "tuple"
        },
        {
          "internalType": "address[]",
          "name": "_voters",
          "type": "address[]"
        },
        {
          "internalType": "address",
          "name": "_chiefArbitrator",
          "type": "address"
        }
      ],
      "name": "createTrade",
      "outputs": [
        {
          "internalType": "address",
          "name": "newEscrowAddress",
          "type": "address"
        }
      ],
      "stateMutability": "payable",
      "type": "function"
    },
    {
      "inputs": [],
      "name": "nextTradeId",
      "outputs": [
        {
          "internalType": "uint256",
          "name": "",
          "type": "uint256"
        }
      ],
      "stateMutability": "view",
      "type": "function"
    }
  ],
  "bytecode": "0x608060405234801561001057600080fd5b5060016000819055506135ec806100286000396000f3fe6080604052600436106200002c5760003560e01c8063813ad0831462000031578063ce4842451462000061575b600080fd5b3480156200003e57600080fd5b506200004962000097565b604051620000589190620001b5565b60405180910390f35b6200007f600480360381019062000079919062000551565b6200009d565b6040516200008e919062000612565b60405180910390f35b60005481565b600080343387878787604051620000b4906200018c565b620000c4959493929190620007ed565b6040518091039082f0905080158015620000e2573d6000803e3d6000fd5b5090508073ffffffffffffffffffffffffffffffffffffffff168673ffffffffffffffffffffffffffffffffffffffff163373ffffffffffffffffffffffffffffffffffffffff167fe6590d553dfe4e8168c8542cdcea58d217ecf014a1b127e13e896388286de64f346000546040516200015f92919062000858565b60405180910390a46000808154809291906200017b90620008b4565b919050555080915050949350505050565b612cb5806200090283390190565b6000819050919050565b620001af816200019a565b82525050565b6000602082019050620001cc6000830184620001a4565b92915050565b6000604051905090565b600080fd5b600080fd5b600073ffffffffffffffffffffffffffffffffffffffff82169050919050565b60006200021382620001e6565b9050919050565b620002258162000206565b81146200023157600080fd5b50565b60008135905062000245816200021a565b92915050565b600080fd5b6000601f19601f8301169050919050565b7f4e487b7100000000000000000000000000000000000000000000000000000000600052604160045260246000fd5b6200029b8262000250565b810181811067ffffffffffffffff82111715620002bd57620002bc62000261565b5b80604052505050565b6000620002d2620001d2565b9050620002e0828262000290565b919050565b600080fd5b600080fd5b600080fd5b600067ffffffffffffffff82111562000312576200031162000261565b5b6200031d8262000250565b9050602081019050919050565b82818337600083830152505050565b6000620003506200034a84620002f4565b620002c6565b9050828152602081018484840111156200036f576200036e620002ef565b5b6200037c8482856200032a565b509392505050565b600082601f8301126200039c576200039b620002ea565b5b8135620003ae84826020860162000339565b91505092915050565b620003c2816200019a565b8114620003ce57600080fd5b50565b600081359050620003e281620003b7565b92915050565b6000606082840312156200040157620004006200024b565b5b6200040d6060620002c6565b9050600082013567ffffffffffffffff81111562000430576200042f620002e5565b5b6200043e8482850162000384565b60008301525060206200045484828501620003d1565b60208301525060406200046a84828501620003d1565b60408301525092915050565b600067ffffffffffffffff82111562000494576200049362000261565b5b602082029050602081019050919050565b600080fd5b6000620004c1620004bb8462000476565b620002c6565b90508083825260208201905060208402830185811115620004e757620004e6620004a5565b5b835b81811015620005145780620004ff888262000234565b845260208401935050602081019050620004e9565b5050509392505050565b600082601f830112620005365762000535620002ea565b5b813562000548848260208601620004aa565b91505092915050565b600080600080608085870312156200056e576200056d620001dc565b5b60006200057e8782880162000234565b945050602085013567ffffffffffffffff811115620005a257620005a1620001e1565b5b620005b087828801620003e8565b935050604085013567ffffffffffffffff811115620005d457620005d3620001e1565b5b620005e2878288016200051e565b9250506060620005f58782880162000234565b91505092959194509250565b6200060c8162000206565b82525050565b600060208201905062000629600083018462000601565b92915050565b600081519050919050565b600082825260208201905092915050565b60005b838110156200066b5780820151818401526020810190506200064e565b60008484015250505050565b600062000684826200062f565b6200069081856200063a565b9350620006a28185602086016200064b565b620006ad8162000250565b840191505092915050565b620006c3816200019a565b82525050565b60006060830160008301518482036000860152620006e8828262000677565b9150506020830151620006ff6020860182620006b8565b506040830151620007146040860182620006b8565b508091505092915050565b600081519050919050565b600082825260208201905092915050565b6000819050602082019050919050565b620007568162000206565b82525050565b60006200076a83836200074b565b60208301905092915050565b6000602082019050919050565b600062000790826200071f565b6200079c81856200072a565b9350620007a9836200073b565b8060005b83811015620007e0578151620007c488826200075c565b9750620007d18362000776565b925050600181019050620007ad565b5085935050505092915050565b600060a08201905062000804600083018862000601565b62000813602083018762000601565b8181036040830152620008278186620006c9565b905081810360608301526200083d818562000783565b90506200084e608083018462000601565b9695505050505050565b60006040820190506200086f6000830185620001a4565b6200087e6020830184620001a4565b9392505050565b7f4e487b7100000000000000000000000000000000000000000000000000000000600052601160045260246000fd5b6000620008c1826200019a565b91507fffffffffffffffffffffffffffffffffffffffffffffffffffffffffffffffff8203620008f657620008f562000885565b5b60018201905091905056fe608060405260405162002cb538038062002cb58339818101604052810190620000299190620006cd565b600083604001518460200151620000419190620007c2565b905080341462000088576040517f08c379a00000000000000000000000000000000000000000000000000000000081526004016200007f906200086e565b60405180910390fd5b6000835111620000cf576040517f08c379a0000000000000000000000000000000000000000000000000000000008152600401620000c690620008e0565b60405180910390fd5b856000806101000a81548173ffffffffffffffffffffffffffffffffffffffff021916908373ffffffffffffffffffffffffffffffffffffffff16021790555084600160006101000a81548173ffffffffffffffffffffffffffffffffffffffff021916908373ffffffffffffffffffffffffffffffffffffffff16021790555034600281905550836004600082015181600001908162000171919062000b43565b50602082015181600101556040820151816002015590505081600760006101000a81548173ffffffffffffffffffffffffffffffffffffffff021916908373ffffffffffffffffffffffffffffffffffffffff1602179055506000600360006101000a81548160ff02191690836004811115620001f357620001f262000c2a565b5b021790555060005b83518110156200031a57600860008583815181106200021f576200021e62000c59565b5b602002602001015173ffffffffffffffffffffffffffffffffffffffff1673ffffffffffffffffffffffffffffffffffffffff16815260200190815260200160002060009054906101000a900460ff16620003045760016008600086848151811062000290576200028f62000c59565b5b602002602001015173ffffffffffffffffffffffffffffffffffffffff1673ffffffffffffffffffffffffffffffffffffffff16815260200190815260200160002060006101000a81548160ff021916908315150217905550600a6000815480929190620002fe9062000c88565b91905055505b8080620003119062000c88565b915050620001fb565b5050505050505062000cd5565b6000604051905090565b600080fd5b600080fd5b600073ffffffffffffffffffffffffffffffffffffffff82169050919050565b600062000368826200033b565b9050919050565b6200037a816200035b565b81146200038657600080fd5b50565b6000815190506200039a816200036f565b92915050565b600080fd5b6000601f19601f8301169050919050565b7f4e487b7100000000000000000000000000000000000000000000000000000000600052604160045260246000fd5b620003f082620003a5565b810181811067ffffffffffffffff82111715620004125762000411620003b6565b5b80604052505050565b60006200042762000327565b9050620004358282620003e5565b919050565b600080fd5b600080fd5b600080fd5b600067ffffffffffffffff821115620004675762000466620003b6565b5b6200047282620003a5565b9050602081019050919050565b60005b838110156200049f57808201518184015260208101905062000482565b60008484015250505050565b6000620004c2620004bc8462000449565b6200041b565b905082815260208101848484011115620004e157620004e062000444565b5b620004ee8482856200047f565b509392505050565b600082601f8301126200050e576200050d6200043f565b5b815162000520848260208601620004ab565b91505092915050565b6000819050919050565b6200053e8162000529565b81146200054a57600080fd5b50565b6000815190506200055e8162000533565b92915050565b6000606082840312156200057d576200057c620003a0565b5b6200058960606200041b565b9050600082015167ffffffffffffffff811115620005ac57620005ab6200043a565b5b620005ba84828501620004f6565b6000830152506020620005d0848285016200054d565b6020830152506040620005e6848285016200054d565b60408301525092915050565b600067ffffffffffffffff82111562000610576200060f620003b6565b5b602082029050602081019050919050565b600080fd5b60006200063d6200063784620005f2565b6200041b565b9050808382526020820190506020840283018581111562000663576200066262000621565b5b835b818110156200069057806200067b888262000389565b84526020840193505060208101905062000665565b5050509392505050565b600082601f830112620006b257620006b16200043f565b5b8151620006c484826020860162000626565b91505092915050565b600080600080600060a08688031215620006ec57620006eb62000331565b5b6000620006fc8882890162000389565b95505060206200070f8882890162000389565b945050604086015167ffffffffffffffff81111562000733576200073262000336565b5b620007418882890162000564565b935050606086015167ffffffffffffffff81111562000765576200076462000336565b5b62000773888289016200069a565b9250506080620007868882890162000389565b9150509295509295909350565b7f4e487b7100000000000000000000000000000000000000000000000000000000600052601160045260246000fd5b6000620007cf8262000529565b9150620007dc8362000529565b9250828202620007ec8162000529565b9150828204841483151762000806576200080562000793565b5b5092915050565b600082825260208201905092915050565b7f5061796d656e74206d757374206d6174636820756e697473202a207072696365600082015250565b6000620008566020836200080d565b915062000863826200081e565b602082019050919050565b60006020820190508181036000830152620008898162000847565b9050919050565b7f4174206c65617374206f6e6520766f7465722069732072657175697265640000600082015250565b6000620008c8601e836200080d565b9150620008d58262000890565b602082019050919050565b60006020820190508181036000830152620008fb81620008b9565b9050919050565b600081519050919050565b7f4e487b7100000000000000000000000000000000000000000000000000000000600052602260045260246000fd5b600060028204905060018216806200095557607f821691505b6020821081036200096b576200096a6200090d565b5b50919050565b60008190508160005260206000209050919050565b60006020601f8301049050919050565b600082821b905092915050565b600060088302620009d57fffffffffffffffffffffffffffffffffffffffffffffffffffffffffffffffff8262000996565b620009e1868362000996565b95508019841693508086168417925050509392505050565b6000819050919050565b600062000a2462000a1e62000a188462000529565b620009f9565b62000529565b9050919050565b6000819050919050565b62000a408362000a03565b62000a5862000a4f8262000a2b565b848454620009a3565b825550505050565b600090565b62000a6f62000a60565b62000a7c81848462000a35565b505050565b5b8181101562000aa45762000a9860008262000a65565b60018101905062000a82565b5050565b601f82111562000af35762000abd8162000971565b62000ac88462000986565b8101602085101562000ad8578190505b62000af062000ae78562000986565b83018262000a81565b50505b505050565b600082821c905092915050565b600062000b186000198460080262000af8565b1980831691505092915050565b600062000b33838362000b05565b9150826002028217905092915050565b62000b4e8262000902565b67ffffffffffffffff81111562000b6a5762000b69620003b6565b5b62000b7682546200093c565b62000b8382828562000aa8565b600060209050601f83116001811462000bbb576000841562000ba6578287015190505b62000bb2858262000b25565b86555062000c22565b601f19841662000bcb8662000971565b60005b8281101562000bf55784890151825560018201915060208501945060208101905062000bce565b8683101562000c15578489015162000c11601f89168262000b05565b8355505b6001600288020188555050505b505050505050565b7f4e487b7100000000000000000000000000000000000000000000000000000000600052602160045260246000fd5b7f4e487b7100000000000000000000000000000000000000000000000000000000600052603260045260246000fd5b600062000c958262000529565b91507fffffffffffffffffffffffffffffffffffffffffffffffffffffffffffffffff820362000cca5762000cc962000793565b5b600182019050919050565b611fd08062000ce56000396000f3fe60806040526004361061010d5760003560e01c80637150d8ae11610095578063aa8c217c11610064578063aa8c217c1461031c578063be444a6814610347578063cafe24b914610379578063f36b9f19146103a2578063f4084a33146103cd57610114565b80637150d8ae146102745780637ace48e71461029f5780638659f1d4146102c8578063a7771ee3146102df57610114565b806342169e48116100dc57806342169e48146101d757806351953dff14610202578063565974d3146102195780635e10177b146102465780636daa2d441461025d57610114565b806308551a531461011957806309eef43e146101445780630c3f6acf14610181578063389a9357146101ac57610114565b3661011457005b600080fd5b34801561012557600080fd5b5061012e6103f8565b60405161013b919061154b565b60405180910390f35b34801561015057600080fd5b5061016b60048036038101906101669190611597565b61041e565b60405161017891906115df565b60405180910390f35b34801561018d57600080fd5b5061019661043e565b6040516101a39190611671565b60405180910390f35b3480156101b857600080fd5b506101c1610451565b6040516101ce91906116a5565b60405180910390f35b3480156101e357600080fd5b506101ec610457565b6040516101f991906116a5565b60405180910390f35b34801561020e57600080fd5b5061021761045d565b005b34801561022557600080fd5b5061022e6107de565b60405161023d93929190611750565b60405180910390f35b34801561025257600080fd5b5061025b61087e565b005b34801561026957600080fd5b50610272610a7d565b005b34801561028057600080fd5b50610289610c10565b604051610296919061154b565b60405180910390f35b3480156102ab57600080fd5b506102c660048036038101906102c191906117ba565b610c34565b005b3480156102d457600080fd5b506102dd610ea8565b005b3480156102eb57600080fd5b5061030660048036038101906103019190611597565b611040565b60405161031391906115df565b60405180910390f35b34801561032857600080fd5b50610331611060565b60405161033e91906116a5565b60405180910390f35b34801561035357600080fd5b5061035c611066565b604051610370989796959493929190611890565b60405180910390f35b34801561038557600080fd5b506103a0600480360381019061039b91906117ba565b6111ca565b005b3480156103ae57600080fd5b506103b76114bd565b6040516103c491906116a5565b60405180910390f35b3480156103d957600080fd5b506103e26114c3565b6040516103ef919061154b565b60405180910390f35b600160009054906101000a900473ffffffffffffffffffffffffffffffffffffffff1681565b60096020528060005260406000206000915054906101000a900460ff1681565b600360009054906101000a900460ff1681565b600c5481565b600a5481565b60036004811115610471576104706115fa565b5b600360009054906101000a900460ff166004811115610493576104926115fa565b5b146104d3576040517f08c379a00000000000000000000000000000000000000000000000000000000081526004016104ca90611961565b60405180910390fd5b6000600c54600b546104e591906119b0565b90506000811161052a576040517f08c379a000000000000000000000000000000000000000000000000000000000815260040161052190611a30565b60405180910390fd5b6000816064600b5461053c9190611a50565b6105469190611ac1565b905060008160646105579190611af2565b9050600081831161057357828261056e9190611af2565b610580565b818361057f9190611af2565b5b9050600a81116105e6576004600360006101000a81548160ff021916908360048111156105b0576105af6115fa565b5b02179055507f555ac47b292203841d35ef83a0e4d14c028a812d75e99d598e7522e12f16a76a60405160405180910390a16107d8565b6002600360006101000a81548160ff0219169083600481111561060c5761060b6115fa565b5b0217905550600c54600b5411156106fa5760008054906101000a900473ffffffffffffffffffffffffffffffffffffffff1673ffffffffffffffffffffffffffffffffffffffff166108fc6002549081150290604051600060405180830381858888f19350505050158015610685573d6000803e3d6000fd5b5060008054906101000a900473ffffffffffffffffffffffffffffffffffffffff1673ffffffffffffffffffffffffffffffffffffffff167fcea2bc33eef9c2bacf266c2b7b17f8f2db3c22582cb56c00467843e85d98021e60016040516106ed91906115df565b60405180910390a26107d7565b600160009054906101000a900473ffffffffffffffffffffffffffffffffffffffff1673ffffffffffffffffffffffffffffffffffffffff166108fc6002549081150290604051600060405180830381858888f19350505050158015610764573d6000803e3d6000fd5b50600160009054906101000a900473ffffffffffffffffffffffffffffffffffffffff1673ffffffffffffffffffffffffffffffffffffffff167fcea2bc33eef9c2bacf266c2b7b17f8f2db3c22582cb56c00467843e85d98021e60006040516107ce91906115df565b60405180910390a25b5b50505050565b60048060000180546107ef90611b55565b80601f016020809104026020016040519081016040528092919081815260200182805461081b90611b55565b80156108685780601f1061083d57610100808354040283529160200191610868565b820191906000526020600020905b81548152906001019060200180831161084b57829003601f168201915b5050505050908060010154908060020154905083565b60008054906101000a900473ffffffffffffffffffffffffffffffffffffffff1673ffffffffffffffffffffffffffffffffffffffff163373ffffffffffffffffffffffffffffffffffffffff161461090c576040517f08c379a000000000000000000000000000000000000000000000000000000000815260040161090390611bd2565b60405180910390fd5b600160048111156109205761091f6115fa565b5b600360009054906101000a900460ff166004811115610942576109416115fa565b5b14610982576040517f08c379a000000000000000000000000000000000000000000000000000000000815260040161097990611c3e565b60405180910390fd5b6002600360006101000a81548160ff021916908360048111156109a8576109a76115fa565b5b0217905550600160009054906101000a900473ffffffffffffffffffffffffffffffffffffffff1673ffffffffffffffffffffffffffffffffffffffff166108fc6002549081150290604051600060405180830381858888f19350505050158015610a17573d6000803e3d6000fd5b5060008054906101000a900473ffffffffffffffffffffffffffffffffffffffff1673ffffffffffffffffffffffffffffffffffffffff167f7fe25e02f602b412aee7591e6643616f1f1259a4ca6a3ee3387fef583badcd0e60405160405180910390a2565b60008054906101000a900473ffffffffffffffffffffffffffffffffffffffff1673ffffffffffffffffffffffffffffffffffffffff163373ffffffffffffffffffffffffffffffffffffffff1614610b0b576040517f08c379a0000000000000000000000000000000000000000000000000000000008152600401610b0290611bd2565b60405180910390fd5b60016004811115610b1f57610b1e6115fa565b5b600360009054906101000a900460ff166004811115610b4157610b406115fa565b5b14610b81576040517f08c379a0000000000000000000000000000000000000000000000000000000008152600401610b7890611caa565b60405180910390fd5b60038060006101000a81548160ff02191690836004811115610ba657610ba56115fa565b5b021790555060008054906101000a900473ffffffffffffffffffffffffffffffffffffffff1673ffffffffffffffffffffffffffffffffffffffff167f0b3cd97b16a08a5c77357c276d248827ad32dfd56060f7c55d6255537ba3d96260405160405180910390a2565b60008054906101000a900473ffffffffffffffffffffffffffffffffffffffff1681565b60036004811115610c4857610c476115fa565b5b600360009054906101000a900460ff166004811115610c6a57610c696115fa565b5b14610caa576040517f08c379a0000000000000000000000000000000000000000000000000000000008152600401610ca190611961565b60405180910390fd5b600860003373ffffffffffffffffffffffffffffffffffffffff1673ffffffffffffffffffffffffffffffffffffffff16815260200190815260200160002060009054906101000a900460ff16610d36576040517f08c379a0000000000000000000000000000000000000000000000000000000008152600401610d2d90611d16565b60405180910390fd5b600960003373ffffffffffffffffffffffffffffffffffffffff1673ffffffffffffffffffffffffffffffffffffffff16815260200190815260200160002060009054906101000a900460ff1615610dc3576040517f08c379a0000000000000000000000000000000000000000000000000000000008152600401610dba90611d82565b60405180910390fd5b6001600960003373ffffffffffffffffffffffffffffffffffffffff1673ffffffffffffffffffffffffffffffffffffffff16815260200190815260200160002060006101000a81548160ff0219169083151502179055508015610e3e57600b6000815480929190610e3490611da2565b9190505550610e57565b600c6000815480929190610e5190611da2565b91905055505b3373ffffffffffffffffffffffffffffffffffffffff167f8eb81cb806dbb3d8a2f94981614331a55dfd90e06a42fdc362ca3ca96981d92f82604051610e9d91906115df565b60405180910390a250565b600160009054906101000a900473ffffffffffffffffffffffffffffffffffffffff1673ffffffffffffffffffffffffffffffffffffffff163373ffffffffffffffffffffffffffffffffffffffff1614610f38576040517f08c379a0000000000000000000000000000000000000000000000000000000008152600401610f2f90611e36565b60405180910390fd5b60006004811115610f4c57610f4b6115fa565b5b600360009054906101000a900460ff166004811115610f6e57610f6d6115fa565b5b14610fae576040517f08c379a0000000000000000000000000000000000000000000000000000000008152600401610fa590611ea2565b60405180910390fd5b6001600360006101000a81548160ff02191690836004811115610fd457610fd36115fa565b5b0217905550600160009054906101000a900473ffffffffffffffffffffffffffffffffffffffff1673ffffffffffffffffffffffffffffffffffffffff167ff5e282865246600eb3bac09a646a37cea2fd524ed3f69b22e58ec18bafea9e8160405160405180910390a2565b60086020528060005260406000206000915054906101000a900460ff1681565b60025481565b6000806000806110746114e9565b60008060008060009054906101000a900473ffffffffffffffffffffffffffffffffffffffff16600160009054906101000a900473ffffffffffffffffffffffffffffffffffffffff16600254600360009054906101000a900460ff166004600b54600c54600760009054906101000a900473ffffffffffffffffffffffffffffffffffffffff168360405180606001604052908160008201805461111890611b55565b80601f016020809104026020016040519081016040528092919081815260200182805461114490611b55565b80156111915780601f1061116657610100808354040283529160200191611191565b820191906000526020600020905b81548152906001019060200180831161117457829003601f168201915b50505050508152602001600182015481526020016002820154815250509350975097509750975097509750975097509091929394959697565b600760009054906101000a900473ffffffffffffffffffffffffffffffffffffffff1673ffffffffffffffffffffffffffffffffffffffff163373ffffffffffffffffffffffffffffffffffffffff161461125a576040517f08c379a000000000000000000000000000000000000000000000000000000000815260040161125190611f0e565b60405180910390fd5b60048081111561126d5761126c6115fa565b5b600360009054906101000a900460ff16600481111561128f5761128e6115fa565b5b146112cf576040517f08c379a00000000000000000000000000000000000000000000000000000000081526004016112c690611f7a565b60405180910390fd5b6002600360006101000a81548160ff021916908360048111156112f5576112f46115fa565b5b021790555080156113dd5760008054906101000a900473ffffffffffffffffffffffffffffffffffffffff1673ffffffffffffffffffffffffffffffffffffffff166108fc6002549081150290604051600060405180830381858888f19350505050158015611368573d6000803e3d6000fd5b5060008054906101000a900473ffffffffffffffffffffffffffffffffffffffff1673ffffffffffffffffffffffffffffffffffffffff167fcea2bc33eef9c2bacf266c2b7b17f8f2db3c22582cb56c00467843e85d98021e60016040516113d091906115df565b60405180910390a26114ba565b600160009054906101000a900473ffffffffffffffffffffffffffffffffffffffff1673ffffffffffffffffffffffffffffffffffffffff166108fc6002549081150290604051600060405180830381858888f19350505050158015611447573d6000803e3d6000fd5b50600160009054906101000a900473ffffffffffffffffffffffffffffffffffffffff1673ffffffffffffffffffffffffffffffffffffffff167fcea2bc33eef9c2bacf266c2b7b17f8f2db3c22582cb56c00467843e85d98021e60006040516114b191906115df565b60405180910390a25b50565b600b5481565b600760009054906101000a900473ffffffffffffffffffffffffffffffffffffffff1681565b60405180606001604052806060815260200160008152602001600081525090565b600073ffffffffffffffffffffffffffffffffffffffff82169050919050565b60006115358261150a565b9050919050565b6115458161152a565b82525050565b6000602082019050611560600083018461153c565b92915050565b600080fd5b6115748161152a565b811461157f57600080fd5b50565b6000813590506115918161156b565b92915050565b6000602082840312156115ad576115ac611566565b5b60006115bb84828501611582565b91505092915050565b60008115159050919050565b6115d9816115c4565b82525050565b60006020820190506115f460008301846115d0565b92915050565b7f4e487b7100000000000000000000000000000000000000000000000000000000600052602160045260246000fd5b6005811061163a576116396115fa565b5b50565b600081905061164b82611629565b919050565b600061165b8261163d565b9050919050565b61166b81611650565b82525050565b60006020820190506116866000830184611662565b92915050565b6000819050919050565b61169f8161168c565b82525050565b60006020820190506116ba6000830184611696565b92915050565b600081519050919050565b600082825260208201905092915050565b60005b838110156116fa5780820151818401526020810190506116df565b60008484015250505050565b6000601f19601f8301169050919050565b6000611722826116c0565b61172c81856116cb565b935061173c8185602086016116dc565b61174581611706565b840191505092915050565b6000606082019050818103600083015261176a8186611717565b90506117796020830185611696565b6117866040830184611696565b949350505050565b611797816115c4565b81146117a257600080fd5b50565b6000813590506117b48161178e565b92915050565b6000602082840312156117d0576117cf611566565b5b60006117de848285016117a5565b91505092915050565b600082825260208201905092915050565b6000611803826116c0565b61180d81856117e7565b935061181d8185602086016116dc565b61182681611706565b840191505092915050565b61183a8161168c565b82525050565b6000606083016000830151848203600086015261185d82826117f8565b91505060208301516118726020860182611831565b5060408301516118856040860182611831565b508091505092915050565b6000610100820190506118a6600083018b61153c565b6118b3602083018a61153c565b6118c06040830189611696565b6118cd6060830188611662565b81810360808301526118df8187611840565b90506118ee60a0830186611696565b6118fb60c0830185611696565b61190860e083018461153c565b9998505050505050505050565b7f4e6f206163746976652064697370757465000000000000000000000000000000600082015250565b600061194b6011836116cb565b915061195682611915565b602082019050919050565b6000602082019050818103600083015261197a8161193e565b9050919050565b7f4e487b7100000000000000000000000000000000000000000000000000000000600052601160045260246000fd5b60006119bb8261168c565b91506119c68361168c565b92508282019050808211156119de576119dd611981565b5b92915050565b7f4e6f20766f746573206361737400000000000000000000000000000000000000600082015250565b6000611a1a600d836116cb565b9150611a25826119e4565b602082019050919050565b60006020820190508181036000830152611a4981611a0d565b9050919050565b6000611a5b8261168c565b9150611a668361168c565b9250828202611a748161168c565b91508282048414831517611a8b57611a8a611981565b5b5092915050565b7f4e487b7100000000000000000000000000000000000000000000000000000000600052601260045260246000fd5b6000611acc8261168c565b9150611ad78361168c565b925082611ae757611ae6611a92565b5b828204905092915050565b6000611afd8261168c565b9150611b088361168c565b9250828203905081811115611b2057611b1f611981565b5b92915050565b7f4e487b7100000000000000000000000000000000000000000000000000000000600052602260045260246000fd5b60006002820490506001821680611b6d57607f821691505b602082108103611b8057611b7f611b26565b5b50919050565b7f4f6e6c7920627579657200000000000000000000000000000000000000000000600082015250565b6000611bbc600a836116cb565b9150611bc782611b86565b602082019050919050565b60006020820190508181036000830152611beb81611baf565b9050919050565b7f4e6f74206177616974696e672064656c69766572790000000000000000000000600082015250565b6000611c286015836116cb565b9150611c3382611bf2565b602082019050919050565b60006020820190508181036000830152611c5781611c1b565b9050919050565b7f4e6f7420696e2064656c69766572792073746174650000000000000000000000600082015250565b6000611c946015836116cb565b9150611c9f82611c5e565b602082019050919050565b60006020820190508181036000830152611cc381611c87565b9050919050565b7f4e6f74206120766f746572000000000000000000000000000000000000000000600082015250565b6000611d00600b836116cb565b9150611d0b82611cca565b602082019050919050565b60006020820190508181036000830152611d2f81611cf3565b9050919050565b7f416c726561647920766f74656400000000000000000000000000000000000000600082015250565b6000611d6c600d836116cb565b9150611d7782611d36565b602082019050919050565b60006020820190508181036000830152611d9b81611d5f565b9050919050565b6000611dad8261168c565b91507fffffffffffffffffffffffffffffffffffffffffffffffffffffffffffffffff8203611ddf57611dde611981565b5b600182019050919050565b7f4f6e6c792073656c6c6572000000000000000000000000000000000000000000600082015250565b6000611e20600b836116cb565b9150611e2b82611dea565b602082019050919050565b60006020820190508181036000830152611e4f81611e13565b9050919050565b7f4e6f74206177616974696e672073656c6c657220636f6e6669726d6174696f6e600082015250565b6000611e8c6020836116cb565b9150611e9782611e56565b602082019050919050565b60006020820190508181036000830152611ebb81611e7f565b9050919050565b7f4f6e6c792063686965662061726269747261746f720000000000000000000000600082015250565b6000611ef86015836116cb565b9150611f0382611ec2565b602082019050919050565b60006020820190508181036000830152611f2781611eeb565b9050919050565b7f4e6f7420696e2050686173652032000000000000000000000000000000000000600082015250565b6000611f64600e836116cb565b9150611f6f82611f2e565b602082019050919050565b60006020820190508181036000830152611f9381611f57565b905091905056fea2646970667358221220dc178487a5f187133d73d8bd079f2274253da75d03824e8a8bab6253284de94764736f6c63430008130033a26469706673582212207f00a615ebcc11b234b93695279e272719ba47bf4e3889ac9b6a9d8f94da47db64736f6c63430008130033",
  "linkReferences": {},
  "deployedLinkReferences": {}
}